{
  "contractName": "ItemManager",
  "abi": [
    {
      "anonymous": false,
      "inputs": [
        {
          "indexed": false,
          "internalType": "uint256",
          "name": "_itemIndex",
          "type": "uint256"
        },
        {
          "indexed": false,
          "internalType": "uint256",
          "name": "_step",
          "type": "uint256"
        },
        {
          "indexed": false,
          "internalType": "address",
          "name": "_itemAddress",
          "type": "address"
        }
      ],
      "name": "SupplyChainStep",
      "type": "event"
    },
    {
      "inputs": [],
      "name": "isOwner",
      "outputs": [
        {
          "internalType": "bool",
          "name": "",
          "type": "bool"
        }
      ],
      "stateMutability": "view",
      "type": "function",
      "constant": true
    },
    {
      "inputs": [
        {
          "internalType": "uint256",
          "name": "",
          "type": "uint256"
        }
      ],
      "name": "items",
      "outputs": [
        {
          "internalType": "contract Item",
          "name": "_item",
          "type": "address"
        },
        {
          "internalType": "string",
          "name": "_identifier",
          "type": "string"
        },
        {
          "internalType": "uint256",
          "name": "_itemPrice",
          "type": "uint256"
        },
        {
          "internalType": "enum ItemManager.SupplyChainState",
          "name": "_state",
          "type": "uint8"
        }
      ],
      "stateMutability": "view",
      "type": "function",
      "constant": true
    },
    {
      "inputs": [],
      "name": "owner",
      "outputs": [
        {
          "internalType": "address",
          "name": "",
          "type": "address"
        }
      ],
      "stateMutability": "view",
      "type": "function",
      "constant": true
    },
    {
      "inputs": [
        {
          "internalType": "string",
          "name": "_identifier",
          "type": "string"
        },
        {
          "internalType": "uint256",
          "name": "_itemPrice",
          "type": "uint256"
        }
      ],
      "name": "createItem",
      "outputs": [],
      "stateMutability": "nonpayable",
      "type": "function"
    },
    {
      "inputs": [
        {
          "internalType": "uint256",
          "name": "_itemIndex",
          "type": "uint256"
        }
      ],
      "name": "triggerPayment",
      "outputs": [],
      "stateMutability": "payable",
      "type": "function",
      "payable": true
    },
    {
      "inputs": [
        {
          "internalType": "uint256",
          "name": "_itemIndex",
          "type": "uint256"
        }
      ],
      "name": "triggerDelivery",
      "outputs": [],
      "stateMutability": "nonpayable",
      "type": "function"
    }
  ],
  "bytecode": "0x608060405234801561001057600080fd5b50336000806101000a81548173ffffffffffffffffffffffffffffffffffffffff021916908373ffffffffffffffffffffffffffffffffffffffff160217905550611145806100606000396000f3fe6080604052600436106100555760003560e01c8063800fb83f1461005a5780638c551742146100885780638da5cb5b1461015a5780638f32d59b1461019b578063bfb231d2146101c8578063cd31831e146102b2575b600080fd5b6100866004803603602081101561007057600080fd5b81019080803590602001909291905050506102ed565b005b34801561009457600080fd5b50610158600480360360408110156100ab57600080fd5b81019080803590602001906401000000008111156100c857600080fd5b8201836020820111156100da57600080fd5b803590602001918460018302840111640100000000831117156100fc57600080fd5b91908080601f016020809104026020016040519081016040528093929190818152602001838380828437600081840152601f19601f8201169050808301925050505050505091929192908035906020019092919050505061050b565b005b34801561016657600080fd5b5061016f6107c8565b604051808273ffffffffffffffffffffffffffffffffffffffff16815260200191505060405180910390f35b3480156101a757600080fd5b506101b06107ec565b60405180821515815260200191505060405180910390f35b3480156101d457600080fd5b50610201600480360360208110156101eb57600080fd5b8101908080359060200190929190505050610843565b604051808573ffffffffffffffffffffffffffffffffffffffff1681526020018060200184815260200183600281111561023757fe5b8152602001828103825285818151815260200191508051906020019080838360005b83811015610274578082015181840152602081019050610259565b50505050905090810190601f1680156102a15780820380516001836020036101000a031916815260200191505b509550505050505060405180910390f35b3480156102be57600080fd5b506102eb600480360360208110156102d557600080fd5b8101908080359060200190929190505050610938565b005b34600160008381526020019081526020016000206002015414610378576040517f08c379a00000000000000000000000000000000000000000000000000000000081526004018080602001828103825260138152602001807f556e73756666696369656e7420616d6f756e740000000000000000000000000081525060200191505060405180910390fd5b6000600281111561038557fe5b6001600083815260200190815260200160002060030160009054906101000a900460ff1660028111156103b457fe5b1461040a576040517f08c379a00000000000000000000000000000000000000000000000000000000081526004018080602001828103825260238152602001806110ca6023913960400191505060405180910390fd5b600180600083815260200190815260200160002060030160006101000a81548160ff0219169083600281111561043c57fe5b02179055507fa4035636e99f06b7651a604c1019fa4e8779fe68ef27eeb74dff2de348f6199b60025460016000600254815260200190815260200160002060030160009054906101000a900460ff16600281111561049657fe5b60016000600254815260200190815260200160002060000160009054906101000a900473ffffffffffffffffffffffffffffffffffffffff16604051808481526020018381526020018273ffffffffffffffffffffffffffffffffffffffff168152602001935050505060405180910390a150565b60008054906101000a900473ffffffffffffffffffffffffffffffffffffffff1673ffffffffffffffffffffffffffffffffffffffff163373ffffffffffffffffffffffffffffffffffffffff16146105af576040517f08c379a00000000000000000000000000000000000000000000000000000000081526004018080602001828103825260238152602001806110ed6023913960400191505060405180910390fd5b600030826002546040516105c290610b70565b808473ffffffffffffffffffffffffffffffffffffffff1681526020018381526020018281526020019350505050604051809103906000f08015801561060c573d6000803e3d6000fd5b5090508060016000600254815260200190815260200160002060000160006101000a81548173ffffffffffffffffffffffffffffffffffffffff021916908373ffffffffffffffffffffffffffffffffffffffff160217905550826001600060025481526020019081526020016000206001019080519060200190610692929190610b7d565b508160016000600254815260200190815260200160002060020181905550600060016000600254815260200190815260200160002060030160006101000a81548160ff021916908360028111156106e557fe5b02179055507fa4035636e99f06b7651a604c1019fa4e8779fe68ef27eeb74dff2de348f6199b60025460016000600254815260200190815260200160002060030160009054906101000a900460ff16600281111561073f57fe5b60016000600254815260200190815260200160002060000160009054906101000a900473ffffffffffffffffffffffffffffffffffffffff16604051808481526020018381526020018273ffffffffffffffffffffffffffffffffffffffff168152602001935050505060405180910390a1600260008154809291906001019190505550505050565b60008054906101000a900473ffffffffffffffffffffffffffffffffffffffff1681565b60008060009054906101000a900473ffffffffffffffffffffffffffffffffffffffff1673ffffffffffffffffffffffffffffffffffffffff163373ffffffffffffffffffffffffffffffffffffffff1614905090565b60016020528060005260406000206000915090508060000160009054906101000a900473ffffffffffffffffffffffffffffffffffffffff1690806001018054600181600116156101000203166002900480601f0160208091040260200160405190810160405280929190818152602001828054600181600116156101000203166002900480156109155780601f106108ea57610100808354040283529160200191610915565b820191906000526020600020905b8154815290600101906020018083116108f857829003601f168201915b5050505050908060020154908060030160009054906101000a900460ff16905084565b60008054906101000a900473ffffffffffffffffffffffffffffffffffffffff1673ffffffffffffffffffffffffffffffffffffffff163373ffffffffffffffffffffffffffffffffffffffff16146109dc576040517f08c379a00000000000000000000000000000000000000000000000000000000081526004018080602001828103825260238152602001806110ed6023913960400191505060405180910390fd5b600160028111156109e957fe5b6001600083815260200190815260200160002060030160009054906101000a900460ff166002811115610a1857fe5b14610a6e576040517f08c379a00000000000000000000000000000000000000000000000000000000081526004018080602001828103825260238152602001806110ca6023913960400191505060405180910390fd5b60026001600083815260200190815260200160002060030160006101000a81548160ff02191690836002811115610aa157fe5b02179055507fa4035636e99f06b7651a604c1019fa4e8779fe68ef27eeb74dff2de348f6199b60025460016000600254815260200190815260200160002060030160009054906101000a900460ff166002811115610afb57fe5b60016000600254815260200190815260200160002060000160009054906101000a900473ffffffffffffffffffffffffffffffffffffffff16604051808481526020018381526020018273ffffffffffffffffffffffffffffffffffffffff168152602001935050505060405180910390a150565b6104af80610c1b83390190565b828054600181600116156101000203166002900490600052602060002090601f016020900481019282601f10610bbe57805160ff1916838001178555610bec565b82800160010185558215610bec579182015b82811115610beb578251825591602001919060010190610bd0565b5b509050610bf99190610bfd565b5090565b5b80821115610c16576000816000905550600101610bfe565b509056fe608060405234801561001057600080fd5b506040516104af3803806104af8339818101604052606081101561003357600080fd5b81019080805190602001909291908051906020019092919080519060200190929190505050816000819055508060028190555082600360006101000a81548173ffffffffffffffffffffffffffffffffffffffff021916908373ffffffffffffffffffffffffffffffffffffffff1602179055505050506103f6806100b96000396000f3fe6080604052600436106100385760003560e01c80632986c0e51461032d5780633c8da5881461035857806389794d00146103835761031e565b3661031e576000600154146100b5576040517f08c379a00000000000000000000000000000000000000000000000000000000081526004018080602001828103825260118152602001807f4974656d20616c7265616479205061696400000000000000000000000000000081525060200191505060405180910390fd5b346000541461012c576040517f08c379a00000000000000000000000000000000000000000000000000000000081526004018080602001828103825260138152602001807f416d6f756e7420756e73756666696369656e740000000000000000000000000081525060200191505060405180910390fd5b6000546001600082825401925050819055506000600360009054906101000a900473ffffffffffffffffffffffffffffffffffffffff1673ffffffffffffffffffffffffffffffffffffffff1634600254604051602401808281526020019150506040516020818303038152906040527f800fb83f000000000000000000000000000000000000000000000000000000007bffffffffffffffffffffffffffffffffffffffffffffffffffffffff19166020820180517bffffffffffffffffffffffffffffffffffffffffffffffffffffffff83818316178352505050506040518082805190602001908083835b6020831061023d578051825260208201915060208101905060208303925061021a565b6001836020036101000a03801982511681845116808217855250505050505090500191505060006040518083038185875af1925050503d806000811461029f576040519150601f19603f3d011682016040523d82523d6000602084013e6102a4565b606091505b505090508061031b576040517f08c379a000000000000000000000000000000000000000000000000000000000815260040180806020018281038252601a8152602001807f5472616e73616374696f6e206e6f74207375636365737366756c00000000000081525060200191505060405180910390fd5b50005b34801561032a57600080fd5b50005b34801561033957600080fd5b506103426103ae565b6040518082815260200191505060405180910390f35b34801561036457600080fd5b5061036d6103b4565b6040518082815260200191505060405180910390f35b34801561038f57600080fd5b506103986103ba565b6040518082815260200191505060405180910390f35b60025481565b60005481565b6001548156fea2646970667358221220b8c43e5d37e67b2826f4f742e3f8d2dec911c6644c1e4c85163bd42096354a4564736f6c634300070000334974656d7320646f65736e2774206578697374206f7220616c726561647920736f6c644f6e6c79204f776e657220697320616c6c6f77656420746869732066756e6374696f6ea2646970667358221220c8d75971c463517729f50650abfb9ea5e74eedeca201745bc482d2270975356c64736f6c63430007000033",
  "immutableReferences": {},
  "source": "pragma solidity ^0.7.0;\r\n\r\nimport \"./Ownable.sol\";\r\nimport \"./Item.sol\";\r\n\r\ncontract ItemManager is Ownable{\r\n\r\n    enum SupplyChainState{Created, Paid, Delivered}\r\n\r\n    struct S_Item{\r\n        Item _item;\r\n        string _identifier;\r\n        uint _itemPrice;\r\n        ItemManager.SupplyChainState _state;\r\n    }\r\n\r\n    mapping(uint => S_Item) public items;\r\n\r\n    uint itemIndex;\r\n\r\n    event SupplyChainStep(uint _itemIndex, uint _step, address _itemAddress);\r\n\r\n    function createItem(string memory _identifier, uint _itemPrice) public OnlyOwner{\r\n        Item item = new Item(this, _itemPrice, itemIndex);\r\n        items[itemIndex]._item = item;\r\n        items[itemIndex]._identifier = _identifier;\r\n        items[itemIndex]._itemPrice = _itemPrice;\r\n        items[itemIndex]._state = SupplyChainState.Created;\r\n\r\n        emit SupplyChainStep(itemIndex, uint(items[itemIndex]._state), address(items[itemIndex]._item));\r\n\r\n        itemIndex++;\r\n    }\r\n\r\n    function triggerPayment(uint _itemIndex) payable public{\r\n        require(items[_itemIndex]._itemPrice == msg.value, \"Unsufficient amount\");\r\n        require(items[_itemIndex]._state == SupplyChainState.Created, \"Items doesn't exist or already sold\");\r\n\r\n        items[_itemIndex]._state = SupplyChainState.Paid;\r\n\r\n        emit SupplyChainStep(itemIndex, uint(items[itemIndex]._state), address(items[itemIndex]._item));\r\n    }\r\n\r\n    function triggerDelivery(uint _itemIndex) public OnlyOwner{\r\n        require(items[_itemIndex]._state == SupplyChainState.Paid, \"Items doesn't exist or already sold\");\r\n\r\n        items[_itemIndex]._state = SupplyChainState.Delivered;\r\n\r\n        emit SupplyChainStep(itemIndex, uint(items[itemIndex]._state), address(items[itemIndex]._item));\r\n    }\r\n}",
  "sourcePath": "C:\\Users\\alaam\\Desktop\\Solidity\\Project\\contracts\\ItemManager.sol",
  "compiler": {
    "name": "solc",
    "version": "0.7.0+commit.9e61f92b.Emscripten.clang"
  },
  "schemaVersion": "3.4.7",
  "updatedAt": "2022-05-24T21:10:38.527Z",
  "networkType": "ethereum",
  "devdoc": {
    "kind": "dev",
    "methods": {},
    "version": 1
  },
  "userdoc": {
    "kind": "user",
    "methods": {},
    "version": 1
  }
}