{
  "contractName": "Ownable",
  "abi": [
    {
      "inputs": [],
      "stateMutability": "nonpayable",
      "type": "constructor"
    },
    {
      "inputs": [],
      "name": "owner",
      "outputs": [
        {
          "internalType": "address",
          "name": "",
          "type": "address"
        }
      ],
      "stateMutability": "view",
      "type": "function"
    },
    {
      "inputs": [],
      "name": "isOwner",
      "outputs": [
        {
          "internalType": "bool",
          "name": "",
          "type": "bool"
        }
      ],
      "stateMutability": "view",
      "type": "function"
    }
  ],
  "bytecode": "0x608060405234801561001057600080fd5b50336000806101000a81548173ffffffffffffffffffffffffffffffffffffffff021916908373ffffffffffffffffffffffffffffffffffffffff160217905550610140806100606000396000f3fe608060405234801561001057600080fd5b50600436106100365760003560e01c80638da5cb5b1461003b5780638f32d59b1461006f575b600080fd5b61004361008f565b604051808273ffffffffffffffffffffffffffffffffffffffff16815260200191505060405180910390f35b6100776100b3565b60405180821515815260200191505060405180910390f35b60008054906101000a900473ffffffffffffffffffffffffffffffffffffffff1681565b60008060009054906101000a900473ffffffffffffffffffffffffffffffffffffffff1673ffffffffffffffffffffffffffffffffffffffff163373ffffffffffffffffffffffffffffffffffffffff161490509056fea264697066735822122066330494c11e0fb0502487838f6451100e650f1469ad18a59dec7f7f68e3a35d64736f6c63430007000033",
  "immutableReferences": {},
  "source": "pragma solidity ^0.7.0;\r\n\r\ncontract Ownable{\r\n    address public owner;\r\n\r\n    constructor(){\r\n        owner = msg.sender;\r\n    }\r\n\r\n    modifier OnlyOwner(){\r\n        require(msg.sender == owner, \"Only Owner is allowed this function\");\r\n        _;\r\n    }\r\n\r\n    function isOwner() public view returns(bool){\r\n        return (msg.sender == owner);\r\n    }\r\n\r\n}",
  "sourcePath": "C:\\Users\\alaam\\Desktop\\Solidity\\Project\\contracts\\Ownable.sol",
  "compiler": {
    "name": "solc",
    "version": "0.7.0+commit.9e61f92b.Emscripten.clang"
  },
  "schemaVersion": "3.4.7",
  "updatedAt": "2022-05-24T21:10:30.607Z",
  "devdoc": {
    "kind": "dev",
    "methods": {},
    "version": 1
  },
  "userdoc": {
    "kind": "user",
    "methods": {},
    "version": 1
  }
}